{"abi":[{"inputs":[],"payable":false,"stateMutability":"nonpayable","type":"constructor","name":"constructor"},{"anonymous":false,"inputs":[{"indexed":false,"internalType":"address","name":"player","type":"address"},{"indexed":false,"internalType":"bool","name":"checkTicket","type":"bool"}],"name":"getTicket","type":"event"},{"constant":false,"inputs":[{"internalType":"address payable","name":"toPay","type":"address"}],"name":"buy","outputs":[],"payable":true,"stateMutability":"payable","type":"function"},{"constant":false,"inputs":[],"name":"retire","outputs":[{"internalType":"bool","name":"","type":"bool"}],"payable":false,"stateMutability":"nonpayable","type":"function"}],"bytecode":"60806040526000805460ff60a01b1916905534801561001d57600080fd5b50600080546001600160a01b031916331790556102558061003f6000396000f3fe6080604052600436106100295760003560e01c8063a4874d771461002e578063f088d54714610057575b600080fd5b34801561003a57600080fd5b5061004361007f565b604080519115158252519081900360200190f35b61007d6004803603602081101561006d57600080fd5b50356001600160a01b03166101a3565b005b6001546000906001600160a01b031633146100e65760008054604080516001600160a01b039092168252602082019290925281517f4b490e521b8b05de4fe1ac0368a879d27c5dfb335cde2bb5b86d25f429d16602929181900390910190a15060006101a0565b600054600160a01b900460ff166101495760008054604080516001600160a01b039092168252602082019290925281517f4b490e521b8b05de4fe1ac0368a879d27c5dfb335cde2bb5b86d25f429d16602929181900390910190a15060006101a0565b6000805460ff60a01b198116909155604080516001600160a01b0390921682526001602083015280517f4b490e521b8b05de4fe1ac0368a879d27c5dfb335cde2bb5b86d25f429d166029281900390910190a15060015b90565b34660ffcb9e57d4000146101b65761021d565b6040516001600160a01b038216903480156108fc02916000818181858888f193505050501580156101eb573d6000803e3d6000fd5b506000805460ff60a01b1916600160a01b179055600180546001600160a01b0383166001600160a01b03199091161790555b5056fea265627a7a72315820723e3b33eaebc768f1b2001e89f353e177f7733c54b92b5dade60f9253c5448464736f6c63430005110032","bytecodeSha1":"ffb297f80f4e15a1f564811a2efbe919d2647c21","compiler":{"evm_version":"istanbul","optimizer":{"enabled":true,"runs":200},"version":"0.5.17+commit.d19bba13"},"contractName":"Ticket","language":"Solidity","natspec":{"methods":{}},"opcodes":"PUSH1 0x80 PUSH1 0x40 MSTORE PUSH1 0x4 CALLDATASIZE LT PUSH2 0x29 JUMPI PUSH1 0x0 CALLDATALOAD PUSH1 0xE0 SHR DUP1 PUSH4 0xA4874D77 EQ PUSH2 0x2E JUMPI DUP1 PUSH4 0xF088D547 EQ PUSH2 0x57 JUMPI JUMPDEST PUSH1 0x0 DUP1 REVERT JUMPDEST CALLVALUE DUP1 ISZERO PUSH2 0x3A JUMPI PUSH1 0x0 DUP1 REVERT JUMPDEST POP PUSH2 0x43 PUSH2 0x7F JUMP JUMPDEST PUSH1 0x40 DUP1 MLOAD SWAP2 ISZERO ISZERO DUP3 MSTORE MLOAD SWAP1 DUP2 SWAP1 SUB PUSH1 0x20 ADD SWAP1 RETURN JUMPDEST PUSH2 0x7D PUSH1 0x4 DUP1 CALLDATASIZE SUB PUSH1 0x20 DUP2 LT ISZERO PUSH2 0x6D JUMPI PUSH1 0x0 DUP1 REVERT JUMPDEST POP CALLDATALOAD PUSH1 0x1 PUSH1 0x1 PUSH1 0xA0 SHL SUB AND PUSH2 0x1A3 JUMP JUMPDEST STOP JUMPDEST PUSH1 0x1 SLOAD PUSH1 0x0 SWAP1 PUSH1 0x1 PUSH1 0x1 PUSH1 0xA0 SHL SUB AND CALLER EQ PUSH2 0xE6 JUMPI PUSH1 0x0 DUP1 SLOAD PUSH1 0x40 DUP1 MLOAD PUSH1 0x1 PUSH1 0x1 PUSH1 0xA0 SHL SUB SWAP1 SWAP3 AND DUP3 MSTORE PUSH1 0x20 DUP3 ADD SWAP3 SWAP1 SWAP3 MSTORE DUP2 MLOAD PUSH32 0x4B490E521B8B05DE4FE1AC0368A879D27C5DFB335CDE2BB5B86D25F429D16602 SWAP3 SWAP2 DUP2 SWAP1 SUB SWAP1 SWAP2 ADD SWAP1 LOG1 POP PUSH1 0x0 PUSH2 0x1A0 JUMP JUMPDEST PUSH1 0x0 SLOAD PUSH1 0x1 PUSH1 0xA0 SHL SWAP1 DIV PUSH1 0xFF AND PUSH2 0x149 JUMPI PUSH1 0x0 DUP1 SLOAD PUSH1 0x40 DUP1 MLOAD PUSH1 0x1 PUSH1 0x1 PUSH1 0xA0 SHL SUB SWAP1 SWAP3 AND DUP3 MSTORE PUSH1 0x20 DUP3 ADD SWAP3 SWAP1 SWAP3 MSTORE DUP2 MLOAD PUSH32 0x4B490E521B8B05DE4FE1AC0368A879D27C5DFB335CDE2BB5B86D25F429D16602 SWAP3 SWAP2 DUP2 SWAP1 SUB SWAP1 SWAP2 ADD SWAP1 LOG1 POP PUSH1 0x0 PUSH2 0x1A0 JUMP JUMPDEST PUSH1 0x0 DUP1 SLOAD PUSH1 0xFF PUSH1 0xA0 SHL NOT DUP2 AND SWAP1 SWAP2 SSTORE PUSH1 0x40 DUP1 MLOAD PUSH1 0x1 PUSH1 0x1 PUSH1 0xA0 SHL SUB SWAP1 SWAP3 AND DUP3 MSTORE PUSH1 0x1 PUSH1 0x20 DUP4 ADD MSTORE DUP1 MLOAD PUSH32 0x4B490E521B8B05DE4FE1AC0368A879D27C5DFB335CDE2BB5B86D25F429D16602 SWAP3 DUP2 SWAP1 SUB SWAP1 SWAP2 ADD SWAP1 LOG1 POP PUSH1 0x1 JUMPDEST SWAP1 JUMP JUMPDEST CALLVALUE PUSH7 0xFFCB9E57D4000 EQ PUSH2 0x1B6 JUMPI PUSH2 0x21D JUMP JUMPDEST PUSH1 0x40 MLOAD PUSH1 0x1 PUSH1 0x1 PUSH1 0xA0 SHL SUB DUP3 AND SWAP1 CALLVALUE DUP1 ISZERO PUSH2 0x8FC MUL SWAP2 PUSH1 0x0 DUP2 DUP2 DUP2 DUP6 DUP9 DUP9 CALL SWAP4 POP POP POP POP ISZERO DUP1 ISZERO PUSH2 0x1EB JUMPI RETURNDATASIZE PUSH1 0x0 DUP1 RETURNDATACOPY RETURNDATASIZE PUSH1 0x0 REVERT JUMPDEST POP PUSH1 0x0 DUP1 SLOAD PUSH1 0xFF PUSH1 0xA0 SHL NOT AND PUSH1 0x1 PUSH1 0xA0 SHL OR SWAP1 SSTORE PUSH1 0x1 DUP1 SLOAD PUSH1 0x1 PUSH1 0x1 PUSH1 0xA0 SHL SUB DUP4 AND PUSH1 0x1 PUSH1 0x1 PUSH1 0xA0 SHL SUB NOT SWAP1 SWAP2 AND OR SWAP1 SSTORE JUMPDEST POP JUMP INVALID LOG2 PUSH6 0x627A7A723158 KECCAK256 PUSH19 0x3E3B33EAEBC768F1B2001E89F353E177F7733C SLOAD 0xB9 0x2B 0x5D 0xAD 0xE6 0xF SWAP3 MSTORE8 0xC5 DIFFICULTY DUP5 PUSH5 0x736F6C6343 STOP SDIV GT STOP ORIGIN ","sha1":"0010b59c36bee7d97a1f8568a159f89c87f6ea8a","source":"pragma solidity >=0.4.24;\n\ncontract Ticket {\n\taddress owner;\n\tbool ticket = false;\n\taddress dealer;\n\n\tconstructor() public {\n\t\towner = msg.sender;\n\t}\n\n\tevent getTicket(address player, bool checkTicket);\n\n\tfunction buy(address payable toPay) payable public {\n\t\tif (msg.value != 0.0045e18) {return;}\n\t\ttoPay.transfer(msg.value);\n\t\tticket = true;\n\t\tdealer = toPay;\n\t}\n\n\tfunction retire() public returns (bool) {\n\t\tif (msg.sender!=dealer) {\n\t\t\temit getTicket(owner, false);\n\t\t\treturn false;}\n\t\tif (ticket==false) {\n\t\t\temit getTicket(owner, false);\n\t\t\treturn false;}\n\t\tticket = false;\n\t\temit getTicket(owner, true);\n\t\treturn true;\n\t}\n}\n","sourcePath":"contracts/ticket.sol","type":"contract","deployment":{"address":"0x9F2Ce2E1dD16A2718A4171f94D3c6F762aB4762b","chainid":"777","blockHeight":12032659}}